S0140000544C315F4669726D776172652E73726563A3
S11300000C945A000C9477000C9477000C947700AD
S11300100C9477000C9477000C9477000C94770080
S11300200C9477000C94E7000C9477000C94770000
S11300300C9477000C9477000C9477000C94770060
S11300400C9477000C9477000C94FE000C947700C9
S11300500C9477000C9477000C9477000C94770040
S11300600C9477000C9477000C9477000C94770030
S11300700C9477000C9477000C9477000C94770020
S11300800C9477000C9477000C9477000C94770010
S11300900C9477000C9477000C9477000C94770000
S11300A00C9477000C9477000C9477000C947700F0
S11300B00C94770011241FBECFEFD8E0DEBFCDBF74
S11300C011E0A0E0B1E0E6E9F0E102C005900D9294
S11300D0A630B107D9F721E0A6E0B1E001C01D9236
S11300E0A73CB207E1F70E946E030C9449080C94F4
S11300F00000E4E6F0E080818E7F8083ECE7F0E0AE
S113010080818F778083808180648083AAE7B0E0D8
S11301108C9186608C938C9180688C938081807F95
S1130120808380818E6080830895EAE7F0E0808197
S11301308F778083E4E6F0E0808181608083089596
S1130140CF93DF930E94790094E1EAE7F0E0A8E717
S1130150B0E0808180648083808186FDFDCFCD9175
S1130160DC9111979150A9F70E949500CE01DF917F
S1130170CF9108951092070110920601089521E08D
S113018030E002C0220F331F8A95E2F78091060106
S113019090910701282B392B3093070120930601F6
S11301A008951092070110920601089580910601A6
S11301B0909107010895699A71980895719A8FEC46
S11301C097E00197F1F700C00000719808951F921D
S11301D00F920FB60F9211248F939F938091260153
S11301E090912701019690932701809326019F9176
S11301F08F910F900FBE0F901F9018951F920F9222
S11302000FB60F9211242F933F934F935F936F93E5
S11302107F938F939F93AF93BF93EF93FF938091BB
S11302202801843170F4E0912801F0E08091C60047
S1130230E45FFE4F8083809128018F5F80932801C3
S113024004C083E090E00E94BF00FF91EF91BF9152
S1130250AF919F918F917F916F915F914F913F915A
S11302602F910F900FBE0F901F90189580E090E093
S1130270FC01E45FFE4F1082019684319105C1F7C1
S113028010922801089580910D0181110FC022E080
S113029030E0F901E45FFE4F9081911108C02F5FB7
S11302A03F4F24313105A9F781E0089580E0089596
S11302B080912801843159F480910C01823448F0F2
S11302C090910C0181E09A3528F080E0089580E057
S11302D0089580E0089580910D01803308F18091A4
S11302E00D018A33F8F482E090E0FC01E45FFE4FF4
S11302F020812033C8F0FC01E45FFE4F20812A33C3
S1130300A8F401968F30910581F780911B01813407
S113031079F090911B0181E09C3459F080E00895BC
S113032080E0089580E0089580E0089580E00895D5
S113033081E008950F931F93CF93DF930E94A00051
S113034090930901809308010E9436010E94D0070E
S11303500E94FD0780E091E00E941908CDE2D1E0FF
S113036007E311E089910E940708C017D107D1F76C
S11303700E94DB060E940F0882E00E940708809119
S11303803A0190913B010E940F08809108019091DD
S113039009010E940F080E94D6000E940F0880E005
S11303A090E00E940F08809137010E940708809115
S11303B037018C34C9F480913801909139010E943D
S11303C00F0880910A0190910B010E940F088091FF
S11303D02601909127010E940F088091200190919D
S11303E021010E940F0838C0883499F480913801A3
S11303F0909139010E940F0880E090E00E940F085C
S113040080E090E00E940F0880E090E00E940F08D6
S113041023C0893489F480E090E00E940F0880E0D2
S113042090E00E940F0880E090E00E940F0880E0B6
S113043090E00E940F0810C080E090E00E940F0836
S113044080E090E00E940F0880E090E00E940F0896
S113045080E090E00E940F082FEF80E792E02150A7
S113046080409040E1F700C000000E94E8070E942D
S11304705801882309F429C180910C018E3409F4B0
S113048028C180910C01883541F40E9443018823DE
S113049009F41FC10E94D1001CC180910C01853454
S11304A009F078C0809137018C3409F012C10E94A0
S11304B06B01882309F40DC10E94A00663E48091B6
S11304C03801909139010E944D0580913801909135
S11304D039010196909339018093380163E40E94B5
S11304E04D0580913801909139010196909339011D
S11304F0809338016EE40E944D05809138019091FB
S11305003901019690933901809338016EE40E9479
S11305104D058091380190913901019690933901EC
S1130520809338014FE06DE071E00E948505809171
S11305303801909139010F969093390180933801D5
S113054060E00E944D058091380190913901019637
S1130550909339018093380163E40E944D058091A2
S113056038019091390101969093390180933801B3
S113057063E40E944D058091380190913901019600
S113058090933901809338010E94AE0688E48093E9
S113059037019FC080910C018434F1F40E9443011F
S11305A0882309F496C08091370198EB980F923014
S11305B020F0877F843409F08CC0809138019091B9
S11305C039010E94BB0580913701883409F081C04C
S11305D084E4809337017DC080910C018334C1F49D
S11305E080913701843409F074C00E944301882348
S11305F009F46FC00E94A0060E944D060E94AE0638
S113060089E480933701109239011092380161C056
S113061080910C01853509F45CC080910C01823411
S113062009F044C080913701893409F052C00E9416
S11306306B01882309F44DC0ECE0F1E02089818945
S113064090E0922B90930B0180930A012289838975
S113065090E0922B90932101809320010E94A006A8
S113066061E080E090E00E944D0543E16DE071E0BF
S113067081E090E00E94850563E484E190E00E94BB
S11306804D0563E485E190E00E944D050E94AE06AD
S113069086E190E090933901809338018CE4809353
S11306A03701109227011092260113C080910C018A
S11306B0833579F480910E01882359F0ECE0F1E060
S11306C0628181810E94E00604C084E090E00E947F
S11306D0BF00DF91CF911F910F91089514BE0FB603
S11306E0F894A895809160008861809360001092CE
S11306F060000FBE85B7806685BF85B7806485BFFF
S113070085B78F7D85BFEAE7F0E080818F778083AE
S113071080B7806880BFC4E6D0E088818FEF88838B
S1130720E5E6F0E090819D63908314B885B997B1B4
S1130730907897B998B19F6798B91AB88BB98DB169
S1130740847F8DB98EB18B608EB96A9A72980E943B
S1130750BA000E94DB0088818F7B8883E6EBF0E09F
S1130760808180628083E1EBF0E080818760808318
S1130770E0E7F0E010828081816080831092B20013
S113078078940E94D6040E9493060E94F0059093E8
S11307903901809338010E94660680913801909156
S11307A03901892B21F088E480933701D7C089E48B
S11307B080933701D3C0FC01EA0FFB1F209357003D
S11307C0E491ED934A175B07B1F70E94C1060E94BA
S11307D0F00690932501809324019C01220F232F7E
S11307E0221F330B319530932A0120932901FC01F8
S11307F0319771F084918F3F49F003C084918F3F0A
S113080029F0F0932301E093220102C03197B1F75C
S1130810409122015091230180E090E0E0E0F0E07B
S113082024919227092E0294202D2F702927392FE5
S11308303025330F307E2327302D3927307F3695EE
S1130840092E000C331F9695969596959F719327C4
S11308509827822F31964E175F0710F780933A013D
S113086090933B0183B7817F866083BFC8E483B7DD
S1130870816083BF889583B78E7F83BF8091370162
S11308808C3409F065C080910A0190910B010097A6
S113089051F0019790930B0180930A011092270164
S11308A01092260155C02091260130912701809194
S11308B02001909121012817390708F449C080913B
S11308C0380190913901469738F485E090E00E9410
S11308D0BF00C09337013CC00E946E060E94DF0433
S11308E02FEF86E791E0215080409040E1F700C06F
S11308F000000E94F20490932C0180932B018FE35B
S11309009CE90197F1F700C000000E94A0066091E5
S11309102B0170912C0180913801909139010E9432
S113092066050E94AE0680913801909139010296C5
S11309309093390180933801109227011092260177
S11309408FEA96E30197F1F700C000000E94660663
S11309504A9B0E949A010E94DE0089CF47E351E03E
S1130960ADE2B1E021E28EE090E08D52914023CFE0
S113097061E080E90E947E0780933C0108954091E4
S11309803C0161E080E90E94C00708950E94B80418
S113099080913C01816080933C010E94BF0440919E
S11309A03C0161E080E90E94C007089552985A9A78
S11309B00E9458070E94C6040E946D070895809102
S11309C03C0180FF0EC0806880933C010E94580760
S11309D00E94BF040E946D0780913C018F77809331
S11309E03C010895CF93DF930E94580760E080E9AB
S11309F00E949207EC010E946D07CE01DF91CF9116
S1130A0008952A980E94BB062A9A0895CF93DF93EB
S1130A10C82FD92F80E00E94BB068D2F0E94BB06F1
S1130A208C2F0E94BB06DF91CF91089521E030E026
S1130A3002C0220F331F8A95E2F78091C101282B4F
S1130A402093C10108952A9885E00E94BB0685E0A1
S1130A500E94BB068093C0012A9A8091C0018170D4
S1130A600895CF93DF93C0E0D0E005C021968AE1DA
S1130A708A95F1F700C00E942305882329F0C83E17
S1130A8083E0D80799F703C0C83ED34018F085E047
S1130A900E941605DF91CF9108950F931F93CF9372
S1130AA08C01C62F0E94310586E00E9401052A9818
S1130AB082E00E94BB06C8010E9406058C2F0E949A
S1130AC0BB062A9ACF911F910F9108950F931F93FC
S1130AD0CF93DF938C01C62FD72F0E94310586E078
S1130AE00E9401052A9882E00E94BB06C8010E9468
S1130AF006058D2F0E94BB068C2F0E94BB062A9AE6
S1130B00DF91CF911F910F910895EF92FF920F9370
S1130B101F93CF93DF93EC017B01142F0E943105C7
S1130B2080E091E0811B91099E013327821793078E
S1130B30DCF086E00E9401052A9882E00E94BB0650
S1130B40CE010E940605112371F0E7011150012F17
S1130B5010E00F5F1F4F0E0D1F1D89910E94BB06F1
S1130B60C017D107D1F72A9ADF91CF911F910F9126
S1130B70FF90EF9008950F931F93CF93DF938C0111
S1130B800E94A0060E94D0070E9431052A9883E0A3
S1130B900E94BB0680E090E00E9406050115110545
S1130BA051F4C0E0D0E080E00E94BB060E94070838
S1130BB02197C9F70BC0C0E0D0E080E00E94BB06DB
S1130BC00E94070821960C171D07B9F72A9A0E945C
S1130BD0AE060E94E807DF91CF911F910F9108950F
S1130BE0FF920F931F93CF93DF93CDB7DEB7CF5F01
S1130BF0D1090FB6F894DEBF0FBECDBF0E94A00688
S1130C000FEFFF24FA9401C0082F2A9883E00E9472
S1130C10BB0680E00E94BB06802F0E94BB0680E0DA
S1130C200E94BB0610E080E00E94BB06E1E0F0E019
S1130C30EC0FFD1FE10FF11D80831F5FA1F72A9ABE
S1130C401F2D01C0182FE1E0F0E0EC0FFD1FE10FB4
S1130C50F11D80818F3F41F00E94AE06812F90E00C
S1130C60902B8E7F02960CC08FEF810F1111EACF6B
S1130C708FEF800F0111C8CF0E94AE0680E090E094
S1130C80C150DF4F0FB6F894DEBF0FBECDBFDF916A
S1130C90CF911F910F91FF90089586E00E94010566
S1130CA02A9880E60E94BB062A9A08952A9885E02D
S1130CB00E94BB0680E00E94BB068093C00180E0D6
S1130CC00E94BB0680933D012A9A08950E94A006C3
S1130CD089E70E9401050E94AE0608952A9882E0E1
S1130CE08A95F1F700C02A9A08952A988FE90E94FC
S1130CF0BB0680E00E94BB068093C20180E00E9494
S1130D00BB0610923E0180933F0180E00E94BB0627
S1130D1020913E0130913F01282B30933F012093D5
S1130D203E012A9A0895229A2A9A1092C1010E9499
S1130D30A0060E9456060E9475060E94AE060895FB
S1130D4024982C98239A2B98259A2D98E4E6F0E081
S1130D5080818B7F808380E58CBD08951CBCE4E694
S1130D60F0E080818460808384B1877C84B985B11C
S1130D70886385B908958EBD0DB407FEFDCF8EB589
S1130D800895CF93DF9380E090E00E942F08C82F4E
S1130D90D0E0DC2FCC27D093C401C093C30181E001
S1130DA090E00E942F08C82BD093C401C093C301C4
S1130DB0DF91CF9108958091C3019091C40108956A
S1130DC0CF93C62F682F80E090E00E9437086C2FE5
S1130DD081E090E00E9437080E94C106CF910895F7
S1130DE0E3E0F0E089E08093570084918670869573
S1130DF08095837020E032E002C0220F331F8A9571
S1130E00E2F780E090E8821B930B9093C6018093F5
S1130E10C5010895ECEBF0E080818823ECF7089598
S1130E2084E88093BC000E940A0708952091B900C9
S1130E30287F30E0482F50E081E02417350709F07F
S1130E4080E008950F931F93CF93DF93082F162FFD
S1130E5084EA8093BC000E940A0788E00E94160777
S1130E60CBEBD0E008830E94100788E10E941607AC
S1130E7018830E94100788E20E941607DF91CF9121
S1130E801F910F910895CF93C82F0E94220784EADF
S1130E908093BC000E940A078091B900C160C0938E
S1130EA0BB000E94100780E40E941607CF910895AA
S1130EB0E4E6F0E080818F778083E9EBF0E08081E5
S1130EC08C7F80838081808380E28093B800ECEB08
S1130ED0F0E08081846080830895ECEBF0E0808111
S1130EE08B7F8083E4E6F0E080818068808387B133
S1130EF08F7C87B988B1806388B90895CF930E94A5
S1130F0043070E941007C091BB0088E50E941607A2
S1130F10882321F084E98093BC0001C0CAEF8C2FA0
S1130F20CF910895CF93DF930E94430784EC80937D
S1130F30BC000E940A07D091BB0080E50E941607FE
S1130F408823B1F00E941007C091BB0088E50E947D
S1130F501607882381F08D2F0E9407088C2F0E948A
S1130F60070884E98093BC008C2F90E09D2B05C07A
S1130F708DEF90E002C08EEF90E0DF91CF91089565
S1130F80CF93C42F0E942207C093BB000E94100776
S1130F9088E20E94160784E98093BC00CF910895EB
S1130FA0E4E6F0E080818D7F808388E18093C10056
S1130FB01092C5001092C400E0ECF0E080818260E1
S1130FC0808380818F7D80838EE08093C20008952A
S1130FD082E48A95F1F700C0E1ECF0E08081877645
S1130FE08083E4E6F0E08081826080838AB18C7F34
S1130FF08AB98BB183608BB908958091C10084FF55
S113100005C0E1ECF0E08081806880830895E0EC25
S1131010F0E0908195FFFDCF8093C6000895CF93B3
S1131020C82F892F0E9407088C2F0E940708CF9190
S113103008950F931F93CF93FC018081882359F067
S11310408F01C0E00E940708CF5FF801EC0FF11D8B
S113105080818111F7CFCF911F910F910895F99954
S1131060FECF92BD81BDF89A992780B50895262FA9
S1131070F999FECF92BD81BDF89A019700B402168A
S113108039F01FBA20BD0FB6F894FA9AF99A0FBE38
S10910900895F894FFCF5F
S1091096544C303100004F
S9030000FC
