S0140000544C315F4669726D776172652E73726563A3
S11300000C945A000C9477000C9477000C947700AD
S11300100C9477000C9477000C9477000C94770080
S11300200C9477000C94E7000C9477000C94770000
S11300300C9477000C9477000C9477000C94770060
S11300400C9477000C9477000C94FE000C947700C9
S11300500C9477000C9477000C9477000C94770040
S11300600C9477000C9477000C9477000C94770030
S11300700C9477000C9477000C9477000C94770020
S11300800C9477000C9477000C9477000C94770010
S11300900C9477000C9477000C9477000C94770000
S11300A00C9477000C9477000C9477000C947700F0
S11300B00C94770011241FBECFEFD8E0DEBFCDBF74
S11300C011E0A0E0B1E0ECE9F0E102C005900D928E
S11300D0A630B107D9F721E0A6E0B1E001C01D9236
S11300E0A73CB207E1F70E946E030C944C080C94F1
S11300F00000E4E6F0E080818E7F8083ECE7F0E0AE
S113010080818F778083808180648083AAE7B0E0D8
S11301108C9186608C938C9180688C938081807F95
S1130120808380818E6080830895EAE7F0E0808197
S11301308F778083E4E6F0E0808181608083089596
S1130140CF93DF930E94790094E1EAE7F0E0A8E717
S1130150B0E0808180648083808186FDFDCFCD9175
S1130160DC9111979150A9F70E949500CE01DF917F
S1130170CF9108951092070110920601089521E08D
S113018030E002C0220F331F8A95E2F78091060106
S113019090910701282B392B3093070120930601F6
S11301A008951092070110920601089580910601A6
S11301B0909107010895699A71980895719A8FEC46
S11301C097E00197F1F700C00000719808951F921D
S11301D00F920FB60F9211248F939F938091260153
S11301E090912701019690932701809326019F9176
S11301F08F910F900FBE0F901F9018951F920F9222
S11302000FB60F9211242F933F934F935F936F93E5
S11302107F938F939F93AF93BF93EF93FF938091BB
S11302202801843170F4E0912801F0E08091C60047
S1130230E45FFE4F8083809128018F5F80932801C3
S113024004C083E090E00E94BF00FF91EF91BF9152
S1130250AF919F918F917F916F915F914F913F915A
S11302602F910F900FBE0F901F90189580E090E093
S1130270FC01E45FFE4F1082019684319105C1F7C1
S113028010922801089580910D0181110FC022E080
S113029030E0F901E45FFE4F9081911108C02F5FB7
S11302A03F4F24313105A9F781E0089580E0089596
S11302B080912801843159F480910C01823448F0F2
S11302C090910C0181E09A3528F080E0089580E057
S11302D0089580E0089580910D01803308F18091A4
S11302E00D018A33F8F482E090E0FC01E45FFE4FF4
S11302F020812033C8F0FC01E45FFE4F20812A33C3
S1130300A8F401968F30910581F780911B01813407
S113031079F090911B0181E09C3459F080E00895BC
S113032080E0089580E0089580E0089580E00895D5
S113033081E008950F931F93CF93DF930E94A00051
S113034090930901809308010E9436010E94D3070B
S11303500E94000880E091E00E941C08CDE2D1E0F8
S113036007E311E089910E940A08C017D107D1F769
S11303700E94DE060E94120883E00E940A0880910F
S11303803A0190913B010E941208809108019091DA
S113039009010E9412080E94D6000E94120880E0FF
S11303A090E00E941208809137010E940A0880910F
S11303B037018C34C9F480913801909139010E943D
S11303C0120880910A0190910B010E9412088091F9
S11303D02601909127010E9412088091200190919A
S11303E021010E94120838C0883499F480913801A0
S11303F0909139010E94120880E090E00E94120856
S113040080E090E00E94120880E090E00E941208D0
S113041023C0893489F480E090E00E94120880E0CF
S113042090E00E94120880E090E00E94120880E0B0
S113043090E00E94120810C080E090E00E94120830
S113044080E090E00E94120880E090E00E94120890
S113045080E090E00E9412082FEF80E792E02150A4
S113046080409040E1F700C000000E94EB070E942A
S11304705801882309F429C180910C018E3409F4B0
S113048028C180910C01883541F40E9443018823DE
S113049009F41FC10E94D1001CC180910C01853454
S11304A009F078C0809137018C3409F012C10E94A0
S11304B06B01882309F40DC10E94A30663E48091B3
S11304C03801909139010E94500580913801909132
S11304D039010196909339018093380163E40E94B5
S11304E0500580913801909139010196909339011A
S11304F0809338016EE40E945005809138019091F8
S11305003901019690933901809338016EE40E9479
S113051050058091380190913901019690933901E9
S1130520809338014FE06DE071E00E94880580916E
S11305303801909139010F969093390180933801D5
S113054060E00E9450058091380190913901019634
S1130550909339018093380163E40E94500580919F
S113056038019091390101969093390180933801B3
S113057063E40E94500580913801909139010196FD
S113058090933901809338010E94B10688E48093E6
S113059037019FC080910C018434F1F40E9443011F
S11305A0882309F496C08091370198EB980F923014
S11305B020F0877F843409F08CC0809138019091B9
S11305C039010E94BE0580913701883409F081C049
S11305D084E4809337017DC080910C018334C1F49D
S11305E080913701843409F074C00E944301882348
S11305F009F46FC00E94A3060E9450060E94B1062F
S113060089E480933701109239011092380161C056
S113061080910C01853509F45CC080910C01823411
S113062009F044C080913701893409F052C00E9416
S11306306B01882309F44DC0ECE0F1E02089818945
S113064090E0922B90930B0180930A012289838975
S113065090E0922B90932101809320010E94A306A5
S113066061E080E090E00E94500543E16DE071E0BC
S113067081E090E00E94880563E484E190E00E94B8
S1130680500563E485E190E00E9450050E94B106A4
S113069086E190E090933901809338018CE4809353
S11306A03701109227011092260113C080910C018A
S11306B0833579F480910E01882359F0ECE0F1E060
S11306C0628181810E94E30604C084E090E00E947C
S11306D0BF00DF91CF911F910F91089514BE0FB603
S11306E0F894A895809160008861809360001092CE
S11306F060000FBE85B7806685BF85B7806485BFFF
S113070085B78F7D85BFEAE7F0E080818F778083AE
S113071080B7806880BFC4E6D0E088818FEF88838B
S1130720E5E6F0E090819D63908314B885B997B1B4
S1130730907897B998B19F6798B91AB88BB98DB169
S1130740847F8DB98EB18B608EB96A9A72980E943B
S1130750BA000E94DB0088818F7B8883E6EBF0E09F
S1130760808180628083E1EBF0E080818760808318
S1130770E0E7F0E010828081816080831092B20013
S113078078940E94D9040E9496060E94F3059093DF
S11307903901809338010E94690680913801909153
S11307A03901892B21F088E480933701DAC089E488
S11307B080933701D6C0FC01EA0FFB1F209357003A
S11307C0E491ED934A175B07B1F70E94C4060E94B7
S11307D0F30690932501809324019C01220F232F7B
S11307E0221F330B319530932A0120932901FC01F8
S11307F0319771F084918F3F49F003C084918F3F0A
S113080029F0F0932301E093220102C03197B1F75C
S1130810409122015091230180E090E0E0E0F0E07B
S113082024919227092E0294202D2F702927392FE5
S11308303025330F307E2327302D3927307F3695EE
S1130840092E000C331F9695969596959F719327C4
S11308509827822F31964E175F0710F780933A013D
S113086090933B010E94DE0083B7817F866083BF43
S1130870C8E483B7816083BF889583B78E7F83BFC5
S1130880809137018C3409F067C080910A019091FE
S11308900B01009751F0019790930B0180930A018B
S11308A0109227011092260155C020912601309103
S11308B0270180912001909121012817390708F41C
S11308C049C08091380190913901469738F485E008
S11308D090E00E94BF00C09337013CC00E947106A3
S11308E00E94E2042FEF86E791E02150804090407F
S11308F0E1F700C000000E94F50490932C0180935E
S11309002B018FE39CE90197F1F700C000000E94DE
S1130910A30660912B0170912C0180913801909174
S113092039010E9469050E94B106809138019091B5
S1130930390102969093390180933801109227016E
S1130940109226018FEA96E30197F1F700C00000A8
S11309500E9469060E94DE004A998BCF0E949A0188
S113096088CF47E351E0ADE2B1E021E28EE090E0D0
S11309708D52914020CF61E080E90E9481078093ED
S11309803C01089540913C0161E080E90E94C30765
S113099008950E94BB0480913C01816080933C01D6
S11309A00E94C20440913C0161E080E90E94C307B7
S11309B0089552985A9A0E945B070E94C9040E94A3
S11309C07007089580913C0180FF0EC08068809379
S11309D03C010E945B070E94C2040E947007809140
S11309E03C018F7780933C010895CF93DF930E945D
S11309F05B0760E080E90E949507EC010E947007A4
S1130A00CE01DF91CF9108952A980E94BE062A9ABA
S1130A100895CF93DF93C82FD92F80E00E94BE069C
S1130A208D2F0E94BE068C2F0E94BE06DF91CF91AF
S1130A30089521E030E002C0220F331F8A95E2F7C7
S1130A408091C101282B2093C10108952A9885E043
S1130A500E94BE0685E00E94BE068093C0012A9AC9
S1130A608091C00181700895CF93DF93C0E0D0E0FE
S1130A7005C021968AE18A95F1F700C00E942605F7
S1130A80882329F0C83E83E0D80799F703C0C83EFD
S1130A90D34018F085E00E941905DF91CF910895A5
S1130AA00F931F93CF938C01C62F0E94340586E0C9
S1130AB00E9404052A9882E00E94BE06C8010E9492
S1130AC009058C2F0E94BE062A9ACF911F910F917F
S1130AD008950F931F93CF93DF938C01C62FD72FC5
S1130AE00E94340586E00E9404052A9882E00E9450
S1130AF0BE06C8010E9409058D2F0E94BE068C2FD8
S1130B000E94BE062A9ADF91CF911F910F910895FA
S1130B10EF92FF920F931F93CF93DF93EC017B012E
S1130B20142F0E94340580E091E0811B91099E01FD
S1130B30332782179307DCF086E00E9404052A9885
S1130B4082E00E94BE06CE010E940905112371F0C5
S1130B50E7011150012F10E00F5F1F4F0E0D1F1DF5
S1130B6089910E94BE06C017D107D1F72A9ADF9156
S1130B70CF911F910F91FF90EF9008950F931F93C2
S1130B80CF93DF938C010E94A3060E94D3070E9497
S1130B9034052A9883E00E94BE0680E090E00E941B
S1130BA009050115110551F4C0E0D0E080E00E9470
S1130BB0BE060E940A082197C9F70BC0C0E0D0E026
S1130BC080E00E94BE060E940A0821960C171D07A9
S1130BD0B9F72A9A0E94B1060E94EB07DF91CF91E0
S1130BE01F910F910895FF920F931F93CF93DF935B
S1130BF0CDB7DEB7CF5FD1090FB6F894DEBF0FBE15
S1130C00CDBF0E94A3060FEFFF24FA9401C0082F62
S1130C102A9883E00E94BE0680E00E94BE06802FD0
S1130C200E94BE0680E00E94BE0610E080E00E94A2
S1130C30BE06E1E0F0E0EC0FFD1FE10FF11D808343
S1130C401F5FA1F72A9A1F2D01C0182FE1E0F0E0E1
S1130C50EC0FFD1FE10FF11D80818F3F41F00E94D9
S1130C60B106812F90E0902B8E7F02960CC08FEFFF
S1130C70810F1111EACF8FEF800F0111C8CF0E94AD
S1130C80B10680E090E0C150DF4F0FB6F894DEBFAC
S1130C900FBECDBFDF91CF911F910F91FF900895AB
S1130CA086E00E9404052A9880E60E94BE062A9ADD
S1130CB008952A9885E00E94BE0680E00E94BE0640
S1130CC08093C00180E00E94BE0680933D012A9A71
S1130CD008950E94A30689E70E9404050E94B106B4
S1130CE008952A9882E08A95F1F700C02A9A089517
S1130CF02A988FE90E94BE0680E00E94BE06809377
S1130D00C20180E00E94BE0610923E0180933F0122
S1130D1080E00E94BE0620913E0130913F01282BC5
S1130D2030933F0120933E012A9A0895229A2A9AE9
S1130D301092C1010E94A3060E9459060E947806DF
S1130D400E94B106089524982C98239A2B98259AEA
S1130D502D98E4E6F0E080818B7F808380E58CBD74
S1130D6008951CBCE4E6F0E080818460808384B153
S1130D70877C84B985B1886385B908958EBD0DB427
S1130D8007FEFDCF8EB50895CF93DF9380E090E00A
S1130D900E943208C82FD0E0DC2FCC27D093C401A6
S1130DA0C093C30181E090E00E943208C82BD09325
S1130DB0C401C093C301DF91CF9108958091C30111
S1130DC09091C4010895CF93C62F682F80E090E0DE
S1130DD00E943A086C2F81E090E00E943A080E9439
S1130DE0C406CF910895E3E0F0E089E080935700D2
S1130DF08491867086958095837020E032E002C0ED
S1130E00220F331F8A95E2F780E090E8821B930B50
S1130E109093C6018093C5010895ECEBF0E08081C6
S1130E208823ECF7089584E88093BC000E940D07A2
S1130E3008952091B900287F30E0482F50E081E0E8
S1130E402417350709F080E008950F931F93CF937B
S1130E50DF93082F162F84EA8093BC000E940D07AD
S1130E6088E00E941907CBEBD0E008830E941307A7
S1130E7088E10E94190718830E94130788E20E94E0
S1130E801907DF91CF911F910F910895CF93C82F28
S1130E900E94250784EA8093BC000E940D0780917C
S1130EA0B900C160C093BB000E94130780E40E9494
S1130EB01907CF910895E4E6F0E080818F7780836D
S1130EC0E9EBF0E080818C7F80838081808380E205
S1130ED08093B800ECEBF0E0808184608083089517
S1130EE0ECEBF0E080818B7F8083E4E6F0E08081AE
S1130EF08068808387B18F7C87B988B1806388B923
S1130F000895CF930E9446070E941307C091BB0027
S1130F1088E50E941907882321F084E98093BC00A6
S1130F2001C0CAEF8C2FCF910895CF93DF930E9415
S1130F30460784EC8093BC000E940D07D091BB004F
S1130F4080E50E9419078823B1F00E941307C0911D
S1130F50BB0088E50E941907882381F08D2F0E9429
S1130F600A088C2F0E940A0884E98093BC008C2F05
S1130F7090E09D2B05C08DEF90E002C08EEF90E0D5
S1130F80DF91CF910895CF93C42F0E942507C0937A
S1130F90BB000E94130788E20E94190784E980932A
S1130FA0BC00CF910895E4E6F0E080818D7F8083DA
S1130FB088E18093C1001092C5001092C400E0EC57
S1130FC0F0E080818260808380818F7D80838EE0E9
S1130FD08093C200089582E48A95F1F700C0E1ECA1
S1130FE0F0E0808187768083E4E6F0E080818260AF
S1130FF080838AB18C7F8AB98BB183608BB9089561
S11310008091C10084FF05C0E1ECF0E0808180683C
S113101080830895E0ECF0E0908195FFFDCF80930C
S1131020C6000895CF93C82F892F0E940A088C2FD9
S11310300E940A08CF9108950F931F93CF93FC0148
S11310408081882359F08F01C0E00E940A08CF5F95
S1131050F801EC0FF11D80818111F7CFCF911F9121
S11310600F910895F999FECF92BD81BDF89A992701
S113107080B50895262FF999FECF92BD81BDF89AC7
S1131080019700B4021639F01FBA20BD0FB6F894C8
S10F1090FA9AF99A0FBE0895F894FFCF65
S109109C544C3031000049
S9030000FC
